{
  "_format": "hh-sol-artifact-1",
  "contractName": "XPost",
  "sourceName": "contracts/XPost.sol",
  "abi": [
    {
      "inputs": [],
      "stateMutability": "payable",
      "type": "constructor"
    },
    {
      "anonymous": false,
      "inputs": [
        {
          "indexed": true,
          "internalType": "address",
          "name": "from",
          "type": "address"
        },
        {
          "indexed": false,
          "internalType": "uint256",
          "name": "timestamp",
          "type": "uint256"
        },
        {
          "indexed": false,
          "internalType": "string",
          "name": "message",
          "type": "string"
        }
      ],
      "name": "NewPost",
      "type": "event"
    },
    {
      "inputs": [
        {
          "internalType": "string",
          "name": "_message",
          "type": "string"
        }
      ],
      "name": "createPost",
      "outputs": [],
      "stateMutability": "nonpayable",
      "type": "function"
    },
    {
      "inputs": [],
      "name": "getAllPosts",
      "outputs": [
        {
          "components": [
            {
              "internalType": "address",
              "name": "sender",
              "type": "address"
            },
            {
              "internalType": "string",
              "name": "message",
              "type": "string"
            },
            {
              "internalType": "uint256",
              "name": "timestamp",
              "type": "uint256"
            }
          ],
          "internalType": "struct XPost.Post[]",
          "name": "",
          "type": "tuple[]"
        }
      ],
      "stateMutability": "view",
      "type": "function"
    },
    {
      "inputs": [],
      "name": "getTotalPosts",
      "outputs": [
        {
          "internalType": "uint256",
          "name": "",
          "type": "uint256"
        }
      ],
      "stateMutability": "view",
      "type": "function"
    },
    {
      "inputs": [
        {
          "internalType": "address",
          "name": "",
          "type": "address"
        }
      ],
      "name": "lastPostedAt",
      "outputs": [
        {
          "internalType": "uint256",
          "name": "",
          "type": "uint256"
        }
      ],
      "stateMutability": "view",
      "type": "function"
    }
  ],
  "bytecode": "0x6080604052606444426100129190610060565b61001c91906100c3565b6001819055506100f4565b6000819050919050565b7f4e487b7100000000000000000000000000000000000000000000000000000000600052601160045260246000fd5b600061006b82610027565b915061007683610027565b925082820190508082111561008e5761008d610031565b5b92915050565b7f4e487b7100000000000000000000000000000000000000000000000000000000600052601260045260246000fd5b60006100ce82610027565b91506100d983610027565b9250826100e9576100e8610094565b5b828206905092915050565b610fd9806101036000396000f3fe608060405234801561001057600080fd5b506004361061004c5760003560e01c8063305611001461005157806351493c4f1461006f5780635fe226b41461009f578063c7303c61146100bd575b600080fd5b6100596100d9565b604051610066919061077b565b60405180910390f35b610089600480360381019061008491906107dd565b61022a565b6040516100969190610819565b60405180910390f35b6100a7610242565b6040516100b49190610819565b60405180910390f35b6100d760048036038101906100d29190610969565b61024b565b005b60606002805480602002602001604051908101604052809291908181526020016000905b8282101561022157838290600052602060002090600302016040518060600160405290816000820160009054906101000a900473ffffffffffffffffffffffffffffffffffffffff1673ffffffffffffffffffffffffffffffffffffffff1673ffffffffffffffffffffffffffffffffffffffff168152602001600182018054610186906109e1565b80601f01602080910402602001604051908101604052809291908181526020018280546101b2906109e1565b80156101ff5780601f106101d4576101008083540402835291602001916101ff565b820191906000526020600020905b8154815290600101906020018083116101e257829003601f168201915b50505050508152602001600282015481525050815260200190600101906100fd565b50505050905090565b60036020528060005260406000206000915090505481565b60008054905090565b42601e600360003373ffffffffffffffffffffffffffffffffffffffff1673ffffffffffffffffffffffffffffffffffffffff168152602001908152602001600020546102989190610a41565b106102d8576040517f08c379a00000000000000000000000000000000000000000000000000000000081526004016102cf90610af8565b60405180910390fd5b42600360003373ffffffffffffffffffffffffffffffffffffffff1673ffffffffffffffffffffffffffffffffffffffff16815260200190815260200160002081905550600160008082825461032e9190610a41565b92505081905550600260405180606001604052803373ffffffffffffffffffffffffffffffffffffffff16815260200183815260200142815250908060018154018082558091505060019003906000526020600020906003020160009091909190915060008201518160000160006101000a81548173ffffffffffffffffffffffffffffffffffffffff021916908373ffffffffffffffffffffffffffffffffffffffff16021790555060208201518160010190816103ed9190610cc4565b506040820151816002015550506064600154424461040b9190610a41565b6104159190610a41565b61041f9190610dc5565b60018190555060326001541161052c576000655af3107a400090504781111561047d576040517f08c379a000000000000000000000000000000000000000000000000000000000815260040161047490610e68565b60405180910390fd5b60003373ffffffffffffffffffffffffffffffffffffffff16826040516104a390610eb9565b60006040518083038185875af1925050503d80600081146104e0576040519150601f19603f3d011682016040523d82523d6000602084013e6104e5565b606091505b5050905080610529576040517f08c379a000000000000000000000000000000000000000000000000000000000815260040161052090610f1a565b60405180910390fd5b50505b3373ffffffffffffffffffffffffffffffffffffffff167fd8c86c7877c3f1f8a40af6cf64a11fe867af887f2a1ad31aac849e36730425b04283604051610574929190610f73565b60405180910390a250565b600081519050919050565b600082825260208201905092915050565b6000819050602082019050919050565b600073ffffffffffffffffffffffffffffffffffffffff82169050919050565b60006105d6826105ab565b9050919050565b6105e6816105cb565b82525050565b600081519050919050565b600082825260208201905092915050565b60005b8381101561062657808201518184015260208101905061060b565b60008484015250505050565b6000601f19601f8301169050919050565b600061064e826105ec565b61065881856105f7565b9350610668818560208601610608565b61067181610632565b840191505092915050565b6000819050919050565b61068f8161067c565b82525050565b60006060830160008301516106ad60008601826105dd565b50602083015184820360208601526106c58282610643565b91505060408301516106da6040860182610686565b508091505092915050565b60006106f18383610695565b905092915050565b6000602082019050919050565b60006107118261057f565b61071b818561058a565b93508360208202850161072d8561059b565b8060005b85811015610769578484038952815161074a85826106e5565b9450610755836106f9565b925060208a01995050600181019050610731565b50829750879550505050505092915050565b600060208201905081810360008301526107958184610706565b905092915050565b6000604051905090565b600080fd5b600080fd5b6107ba816105cb565b81146107c557600080fd5b50565b6000813590506107d7816107b1565b92915050565b6000602082840312156107f3576107f26107a7565b5b6000610801848285016107c8565b91505092915050565b6108138161067c565b82525050565b600060208201905061082e600083018461080a565b92915050565b600080fd5b600080fd5b7f4e487b7100000000000000000000000000000000000000000000000000000000600052604160045260246000fd5b61087682610632565b810181811067ffffffffffffffff821117156108955761089461083e565b5b80604052505050565b60006108a861079d565b90506108b4828261086d565b919050565b600067ffffffffffffffff8211156108d4576108d361083e565b5b6108dd82610632565b9050602081019050919050565b82818337600083830152505050565b600061090c610907846108b9565b61089e565b90508281526020810184848401111561092857610927610839565b5b6109338482856108ea565b509392505050565b600082601f8301126109505761094f610834565b5b81356109608482602086016108f9565b91505092915050565b60006020828403121561097f5761097e6107a7565b5b600082013567ffffffffffffffff81111561099d5761099c6107ac565b5b6109a98482850161093b565b91505092915050565b7f4e487b7100000000000000000000000000000000000000000000000000000000600052602260045260246000fd5b600060028204905060018216806109f957607f821691505b602082108103610a0c57610a0b6109b2565b5b50919050565b7f4e487b7100000000000000000000000000000000000000000000000000000000600052601160045260246000fd5b6000610a4c8261067c565b9150610a578361067c565b9250828201905080821115610a6f57610a6e610a12565b5b92915050565b600082825260208201905092915050565b7f4d7573742077616974203330207365636f6e6473206265666f7265207761766960008201527f6e6720616761696e2e0000000000000000000000000000000000000000000000602082015250565b6000610ae2602983610a75565b9150610aed82610a86565b604082019050919050565b60006020820190508181036000830152610b1181610ad5565b9050919050565b60008190508160005260206000209050919050565b60006020601f8301049050919050565b600082821b905092915050565b600060088302610b7a7fffffffffffffffffffffffffffffffffffffffffffffffffffffffffffffffff82610b3d565b610b848683610b3d565b95508019841693508086168417925050509392505050565b6000819050919050565b6000610bc1610bbc610bb78461067c565b610b9c565b61067c565b9050919050565b6000819050919050565b610bdb83610ba6565b610bef610be782610bc8565b848454610b4a565b825550505050565b600090565b610c04610bf7565b610c0f818484610bd2565b505050565b5b81811015610c3357610c28600082610bfc565b600181019050610c15565b5050565b601f821115610c7857610c4981610b18565b610c5284610b2d565b81016020851015610c61578190505b610c75610c6d85610b2d565b830182610c14565b50505b505050565b600082821c905092915050565b6000610c9b60001984600802610c7d565b1980831691505092915050565b6000610cb48383610c8a565b9150826002028217905092915050565b610ccd826105ec565b67ffffffffffffffff811115610ce657610ce561083e565b5b610cf082546109e1565b610cfb828285610c37565b600060209050601f831160018114610d2e5760008415610d1c578287015190505b610d268582610ca8565b865550610d8e565b601f198416610d3c86610b18565b60005b82811015610d6457848901518255600182019150602085019450602081019050610d3f565b86831015610d815784890151610d7d601f891682610c8a565b8355505b6001600288020188555050505b505050505050565b7f4e487b7100000000000000000000000000000000000000000000000000000000600052601260045260246000fd5b6000610dd08261067c565b9150610ddb8361067c565b925082610deb57610dea610d96565b5b828206905092915050565b7f54686520636f6e747261637420646f6573206e6f74206861766520737566666960008201527f6369656e742066756e647320746f2070617920746865207072656d69756d2e00602082015250565b6000610e52603f83610a75565b9150610e5d82610df6565b604082019050919050565b60006020820190508181036000830152610e8181610e45565b9050919050565b600081905092915050565b50565b6000610ea3600083610e88565b9150610eae82610e93565b600082019050919050565b6000610ec482610e96565b9150819050919050565b7f556e61626c6520746f2073656e64207072697a652e0000000000000000000000600082015250565b6000610f04601583610a75565b9150610f0f82610ece565b602082019050919050565b60006020820190508181036000830152610f3381610ef7565b9050919050565b6000610f45826105ec565b610f4f8185610a75565b9350610f5f818560208601610608565b610f6881610632565b840191505092915050565b6000604082019050610f88600083018561080a565b8181036020830152610f9a8184610f3a565b9050939250505056fea2646970667358221220594e95a24a6c5a340875744a3722b2daf8d485c90c5aa81f80fd14a09420463264736f6c634300081c0033",
  "linkReferences": {},
  "deployedLinkReferences": {}
}